:020000040800F2
:100000000000022055450008D9370008E5370008F0
:10001000EB370008F1370008F73700080000000050
:10002000000000000000000000000000FD37000894
:1000300009380008000000001538000821380008C1
:10004000A5450008A5450008A5450008A5450008E8
:10005000A5450008A5450008A5450008A5450008D8
:10006000A5450008A5450008A5450008A5450008C8
:100070008D440008A5450008E1440008A545000896
:10008000A5450008A5450008A5450008A5450008A8
:10009000A5450008A5450008A5450008A545000898
:1000A000A5450008A5450008A5450008A545000888
:1000B000A5450008A5450008A5450008A545000878
:1000C000A5450008A5450008A5450008A545000868
:1000D000A5450008A5450008A545000825450008D8
:1000E000A5450008A5450008A5450008A545000848
:1000F000A5450008A5450008A5450008A545000838
:10010000A5450008A5450008A5450008A545000827
:10011000A5450008A5450008A5450008A545000817
:10012000A5450008A5450008A5450008A545000807
:10013000A5450008A5450008A5450008A5450008F7
:10014000A5450008A5450008A5450008A5450008E7
:10015000A5450008A5450008A5450008A5450008D7
:10016000A5450008A5450008A5450008A5450008C7
:10017000A5450008A5450008A545000800000000A9
:08018000A5450008A545000893
:1001880010B5054C237833B9044B13B10448AFF3C9
:1001980000800123237010BD28010020000000000A
:1001A8001846000808B5034B1BB103490348AFF3D1
:1001B800008008BD000000002C010020184600083F
:1001C80053B94AB9002908BF00281CBF4FF0FF31B6
:1001D8004FF0FF3000F072B9ADF1080C6DE904CEB4
:1001E80000F006F8DDF804E0DDE9022304B070470A
:1001F8002DE9F047089E04468846002B4BD18A42D9
:10020800154667D9B2FA82F24AB1C2F1200701FA5B
:1002180002F320FA07F7954047EA030894404FEAAB
:10022800154E230CB8FBFEF71FFA85FC0EFB17884A
:1002380043EA084307FB0CF1994209D9EB1807F187
:10024800FF3080F01B81994240F21881023F2B4415
:100258005B1AA4B2B3FBFEF00EFB103344EA03446E
:1002680000FB0CFCA44509D92C1900F1FF3380F0E0
:100278000781A44540F2048102382C4440EA074033
:10028800A4EB0C0400271EB1D4400023C6E90043A8
:100298003946BDE8F0878B4209D9002E00F0EB8083
:1002A8000027C6E9000138463946BDE8F087B3FAA9
:1002B80083F7002F47D18B4202D3824200F2FA80A3
:1002C800841A61EB030301209846002EE0D0C6E9AA
:1002D8000048DDE702B9FFDEB2FA82F2002A40F0F8
:1002E8008F80491B4FEA154E1FFA85F80127B1FB8D
:1002F800FEFC230C0EFB1C1143EA014308FB0CF126
:10030800994207D9EB180CF1FF3002D2994200F25A
:10031800CD808446591AA3B2B1FBFEF00EFB10142F
:1003280043EA044408FB00F8A04507D92C1900F15A
:10033800FF3302D2A04500F2B6801846A4EB0804A9
:1003480040EA0C409FE7C7F1200CBB4022FA0CFEA4
:100358004EEA030E01FA07F420FA0CF521FA0CF321
:100368004FEA1E482543B3FBF8F92C0C08FB193358
:100378001FFA8EFA44EA034309FB0AF49C4202FA84
:1003880007F200FA07F10BD91EEB030309F1FF305E
:1003980080F087809C4240F28480A9F1020973446E
:1003A8001B1BADB2B3FBF8F008FB103345EA03445E
:1003B80000FB0AFAA24508D91EEB040400F1FF333A
:1003C8006BD2A24569D90238744440EA0940A0FBBF
:1003D8000289A4EB0A044C45C2464B4654D351D07B
:1003E800002E69D0B1EB0A0564EB030404FA0CFC97
:1003F800FD40FC404CEA0505C6E90054002747E7E4
:10040800C2F1200320FA03F7954001FA02F021FA1D
:1004180003F34FEA154E3843010CB3FBFEF71FFAFE
:1004280085F80EFB173341EA034107FB08F38B42BB
:1004380004FA02F407D9691807F1FF3C2FD28B425E
:100448002DD9023F2944CB1A81B2B3FBFEF00EFB33
:10045800103341EA034100FB08F38B4207D96918BE
:1004680000F1FF3C17D28B4215D902382944C91A2A
:1004780040EA07473BE73746304609E70746E7E6DD
:100488001846FBE64145ABD2B8EB020A69EB0E020F
:1004980001381346A4E76046E9E7184695E767463A
:1004A800D1E781467CE702382C4447E7ACF1020CDF
:1004B8002B442FE7384608E73746E9E6704700BF80
:1004C80010F8012B11F8013B012A28BF9A42F7D0F6
:1004D800D01A7047034613F8012B002AFBD1181ACB
:1004E8000138704780B500AF0E4B1B680D4A43F4C6
:1004F800007313600B4B1B680A4A43F48063136054
:10050800084B1B68074A43F480731360032000F00C
:1005180007F9002000F008F803F032F90023184624
:1005280080BD00BF003C024080B582B000AF78605B
:10053800124B1A68124B1B7819464FF47A73B3FBA7
:10054800F1F3B2FBF3F3184600F011F90346002B60
:1005580001D001230EE07B680F2B0AD800227968AE
:100568004FF0FF3000F0E7F8064A7B68136000237D
:1005780000E0012318460837BD4680BD240100204D
:10058800040000200000002080B400AF054B1B7859
:100598001A46054B1B681344034A136000BFBD4647
:1005A80080BC7047040000204401002080B400AFE4
:1005B800024B1B681846BD4680BC704744010020AA
:1005C80080B485B000AF78607B6803F00703FB60F8
:1005D8000C4BDB68BB60BA684FF6FF031340BB6087
:1005E800FB681A02BB68134343F0BF6343F400334C
:1005F800BB60044ABB68D36000BF1437BD4680BCEB
:10060800704700BF00ED00E080B400AF044BDB682A
:100618001B0A03F007031846BD4680BC704700BF9D
:1006280000ED00E080B483B000AF03463960FB7191
:1006380097F90730002B0ADB3B68DAB20C4997F9C7
:1006480007301201D2B20B4483F800230AE03B685A
:10065800DAB20849FB7903F00F03043B1201D2B266
:100668000B441A7600BF0C37BD4680BC704700BFEC
:1006780000E100E000ED00E080B489B000AFF86070
:10068800B9607A60FB6803F00703FB61FB69C3F19B
:100698000703042B28BF0423BB61FB690433062B23
:1006A80002D9FB69033B00E000237B614FF0FF3276
:1006B800BB6902FA03F3DA43BB681A407B699A40C4
:1006C8004FF0FF317B6901FA03F3D9437B680B4094
:1006D800134318462437BD4680BC704780B582B0A6
:1006E80000AF78607B68013BB3F1807F01D30123C1
:1006F8000FE00A4A7B68013B53600F214FF0FF303F
:10070800FFF790FF054B00229A60044B07221A60FE
:10071800002318460837BD4680BD00BF10E000E042
:1007280080B582B000AF78607868FFF749FF00BFF6
:100738000837BD4680BD80B586B000AF0346B960B6
:100748007A60FB7300237B61FFF75EFF78617A684C
:10075800B9687869FFF790FF024697F90F3011469C
:100768001846FFF75FFF00BF1837BD4680BD80B54C
:1007780082B000AF78607868FFF7B0FF034618468C
:100788000837BD4680BD000080B489B000AF7860EE
:10079800396000237B6100233B610023BB61002398
:1007A800FB616BE10122FB6902FA03F37B613B68A1
:1007B8001B687A6913403B613A697B699A4240F049
:1007C8005A813B685B68012B0BD03B685B68022B46
:1007D80007D03B685B68112B03D03B685B68122B22
:1007E80030D17B689B68BB61FB695B00032202FA1E
:1007F80003F3DB43BA691340BB613B68DA68FB6902
:100808005B0002FA03F3BA691343BB617B68BA69F8
:100818009A607B685B68BB610122FB6902FA03F39B
:10082800DB43BA691340BB613B685B681B0903F093
:100838000102FB6902FA03F3BA691343BB617B68DF
:10084800BA695A607B68DB68BB61FB695B0003229D
:1008580002FA03F3DB43BA691340BB613B689A6849
:10086800FB695B0002FA03F3BA691343BB617B6857
:10087800BA69DA603B685B68022B03D03B685B6847
:10088800122B23D1FB69DA087B68083253F822302F
:10089800BB61FB6903F007039B000F2202FA03F315
:1008A800DB43BA691340BB613B681A69FB6903F013
:1008B80007039B0002FA03F3BA691343BB61FB69A0
:1008C800DA087B680832B96943F822107B681B682C
:1008D800BB61FB695B00032202FA03F3DB43BA69DD
:1008E8001340BB613B685B6803F00302FB695B0074
:1008F80002FA03F3BA691343BB617B68BA691A60E9
:100908003B685B6803F08053002B00F0B480002341
:10091800FB605F4B5B6C5E4A43F4804353645C4B03
:100928005B6C03F48043FB60FB685A4AFB699B08D5
:10093800023352F82330BB61FB6903F003039B00C9
:100948000F2202FA03F3DB43BA691340BB617B68E9
:10095800514A93422BD07B68504A934225D07B68FA
:100968004F4A93421FD07B684E4A934219D07B6806
:100978004D4A934213D07B684C4A93420DD07B6812
:100988004B4A934207D07B684A4A934201D10723D6
:100998000EE008230CE006230AE0052308E0042300
:1009A80006E0032304E0022302E0012300E0002321
:1009B800FA6902F0030292009340BA691343BB61DB
:1009C8003449FB699B080233BA6941F823203A4B42
:1009D8001B68BB613B69DB43BA691340BB613B6879
:1009E8005B6803F48033002B03D0BA693B69134377
:1009F800BB61314ABB6913602F4B5B68BB613B69C4
:100A0800DB43BA691340BB613B685B6803F400339E
:100A1800002B03D0BA693B691343BB61264ABB6903
:100A28005360254B9B68BB613B69DB43BA69134044
:100A3800BB613B685B6803F48013002B03D0BA6981
:100A48003B691343BB611C4ABB6993601A4BDB6863
:100A5800BB613B69DB43BA691340BB613B685B68B8
:100A680003F40013002B03D0BA693B691343BB613D
:100A7800114ABB69D360FB690133FB61FB690F2B2A
:100A88007FF690AE00BF2437BD4680BC704700BFDC
:100A980000380240003801400000024000040240D3
:100AA80000080240000C02400010024000140240FE
:100AB80000180240001C0240003C014080B483B092
:100AC80000AF78600B467B8013467B707B78002BE9
:100AD80003D07A887B689A6103E07B881A047B6874
:100AE8009A6100BF0C37BD4680BC704780B586B0A0
:100AF80000AF78607B68002B01D101235BE27B6843
:100B08001B6803F00103002B75D0A34B9B6803F00F
:100B18000C03042B0CD0A04B9B6803F00C03082B90
:100B280012D19D4B5B6803F48003B3F5800F0BD1A2
:100B3800994B1B6803F40033002B5BD07B685B6820
:100B4800002B57D1012336E27B685B68B3F5803F01
:100B580006D1914B1B68904A43F4803313601DE023
:100B68007B685B68B3F5A02F0CD18B4B1B688A4A56
:100B780043F480231360884B1B68874A43F480330F
:100B880013600BE0844B1B68834A23F480331360A3
:100B9800814B1B68804A23F4802313607B685B6861
:100BA800002B13D0FFF702FD386108E0FFF7FEFCC9
:100BB80002463B69D31A642B01D90323FBE1764B28
:100BC8001B6803F40033002BF0D014E0FFF7EEFCB1
:100BD800386108E0FFF7EAFC02463B69D31A642B48
:100BE80001D90323E7E16C4B1B6803F40033002BA6
:100BF800F0D100E000BF7B681B6803F00203002B04
:100C080063D0654B9B6803F00C03002B0BD0624B41
:100C18009B6803F00C03082B1CD15F4B5B6803F443
:100C28008003002B16D15C4B1B6803F00203002BDA
:100C380005D07B68DB68012B01D00123BBE1564B53
:100C48001B6823F0F8027B681B69DB0052491343D9
:100C58000B603AE07B68DB68002B20D04F4B012209
:100C68001A60FFF7A3FC386108E0FFF79FFC024613
:100C78003B69D31A022B01D903239CE1464B1B681D
:100C880003F00203002BF0D0434B1B6823F0F8025B
:100C98007B681B69DB00404913430B6015E03F4B41
:100CA80000221A60FFF782FC386108E0FFF77EFC3B
:100CB80002463B69D31A022B01D903237BE1364B49
:100CC8001B6803F00203002BF0D17B681B6803F05C
:100CD8000803002B30D07B685B69002B16D0304BA3
:100CE80001221A60FFF762FC386108E0FFF75EFC3A
:100CF80002463B69D31A022B01D903235BE1264B39
:100D08005B6F03F00203002BF0D015E0244B0022A8
:100D18001A60FFF74BFC386108E0FFF747FC024612
:100D28003B69D31A022B01D9032344E11A4B5B6FA9
:100D380003F00203002BF0D17B681B6803F0040367
:100D4800002B00F0A0800023FB75134B1B6C03F0F5
:100D58008053002B0FD10023BB600F4B1B6C0E4A36
:100D680043F0805313640C4B1B6C03F08053BB603F
:100D7800BB680123FB750B4B1B6803F48073002BC6
:100D880021D1084B1B68074A43F480731360FFF7AF
:100D98000DFC386111E000BF0038024000004742F6
:100DA800800E474200700040FFF700FC02463B6996
:100DB800D31A022B01D90323FDE0814B1B6803F4EE
:100DC8008073002BF0D07B689B68012B06D17D4B8C
:100DD8001B6F7C4A43F0010313671CE07B689B6828
:100DE800052B0CD1774B1B6F764A43F0040313672E
:100DF800744B1B6F734A43F0010313670BE0714B8D
:100E08001B6F704A23F0010313676E4B1B6F6D4A0B
:100E180023F0040313677B689B68002B15D0FFF74A
:100E2800C5FB38610AE0FFF7C1FB02463B69D31AEC
:100E380041F28832934201D90323BCE0614B1B6F16
:100E480003F00203002BEED014E0FFF7AFFB38618C
:100E58000AE0FFF7ABFB02463B69D31A41F288323E
:100E6800934201D90323A6E0564B1B6F03F00203FC
:100E7800002BEED1FB7D012B05D1524B1B6C514A47
:100E880023F0805313647B689B69002B00F09280E9
:100E98004C4B9B6803F00C03082B5CD07B689B6968
:100EA800022B41D1484B00221A60FFF77FFB3861C3
:100EB80008E0FFF77BFB02463B69D31A022B01D9F6
:100EC800032378E03F4B1B6803F00073002BF0D13D
:100ED8007B68DA697B681B6A1A437B685B6A9B01DB
:100EE8001A437B689B6A5B08013B1B041A437B68B7
:100EF800DB6A1B06334913434B60334B01221A60EC
:100F0800FFF754FB386108E0FFF750FB02463B69E6
:100F1800D31A022B01D903234DE02A4B1B6803F097
:100F28000073002BF0D045E0274B00221A60FFF732
:100F38003DFB386108E0FFF739FB02463B69D31AED
:100F4800022B01D9032336E01E4B1B6803F0007304
:100F5800002BF0D12EE07B689B69012B01D1012386
:100F680029E0184B9B68FB60FB6803F480027B68F0
:100F7800DB699A421CD1FB6803F03F027B681B6A5D
:100F88009A4215D1FA6847F6C07313407A68526AD4
:100F980093420DD1FB6803F440327B689B6A9A4206
:100FA80006D1FB6803F070627B68DB6A9A4201D065
:100FB800012300E0002318461837BD4680BD00BF56
:100FC80000700040003802406000474280B584B09D
:100FD80000AF786039607B68002B01D10123CCE039
:100FE800684B1B6803F00F033A689A420CD9654BAB
:100FF8003A68D2B21A70634B1B6803F00F033A6861
:101008009A4201D00123B8E07B681B6803F0020311
:10101800002B20D07B681B6803F00403002B05D04D
:10102800594B9B68584A43F4E05393607B681B68AC
:1010380003F00803002B05D0534B9B68524A43F436
:1010480060439360504B9B6823F0F0027B689B6879
:101058004D4913438B607B681B6803F00103002B29
:1010680044D07B685B68012B07D1474B1B6803F4AE
:101078000033002B19D101237FE07B685B68022BCA
:1010880003D07B685B68032B07D13F4B1B6803F0D9
:101098000073002B09D101236FE03B4B1B6803F061
:1010A8000203002B01D1012367E0374B9B6823F033
:1010B80003027B685B68344913438B60FFF776FA59
:1010C800F8600AE0FFF772FA0246FB68D31A41F2A9
:1010D8008832934201D903234FE02B4B9B6803F0DE
:1010E8000C027B685B689B009A42EBD1254B1B681E
:1010F80003F00F033A689A420CD2224B3A68D2B2F4
:101108001A70204B1B6803F00F033A689A4201D00B
:10111800012332E07B681B6803F00403002B08D02E
:10112800194B9B6823F4E0527B68DB68164913432C
:101138008B607B681B6803F00803002B09D0124BF7
:101148009B6823F460427B681B69DB000E491343EC
:101158008B6000F021F801460B4B9B681B0903F0DC
:101168000F030A4AD35C21FA03F3094A1360094BB7
:101178001B681846FFF7D8F9002318461037BD46F4
:1011880080BD00BF003C024000380240784600089D
:101198002401002000000020F0B585B000AF002336
:1011A8007B600023FB6000233B600023BB60634B34
:1011B8009B6803F00C03042B07D0082B08D0002BE6
:1011C80040F0B4805E4BBB60B3E05E4BBB60B0E008
:1011D8005A4B5B6803F03F037B60584B5B6803F432
:1011E8008003002B4AD0554B5B689B094FF00004E5
:1011F80040F2FF114FF0000203EA010504EA02067B
:10120800294632464FF000034FF00004540144EAE7
:10121800D1644B0119462246491B62EB06024FF086
:1012280000034FF00004940144EA91648B015B1AB7
:1012380064EB02044FF000014FF00002E20042EAC2
:101248005372D9000B4614465B1944EB06044FF061
:1012580000014FF00002620242EAD35259020B46E3
:101268001446184621467B684FF000041A46234668
:10127800FEF7A6FF03460C46FB6049E02F4B5B6870
:101288009B094FF0000440F2FF114FF0000203EAFF
:10129800010504EA0206294632464FF000034FF0E2
:1012A8000004540144EAD1644B0119462246491B03
:1012B80062EB06024FF000034FF00004940144EA89
:1012C80091648B015B1A64EB02044FF000014FF04C
:1012D8000002E20042EA5372D9000B4614465B1939
:1012E80044EB06044FF000014FF00002A20242EA6C
:1012F800935299020B461446184621467B684FF0D4
:1013080000041A462346FEF75BFF03460C46FB60C3
:101318000A4B5B681B0C03F0030301335B003B6063
:10132800FA683B68B2FBF3F3BB6002E0044BBB60B6
:1013380000BFBB6818461437BD46F0BD00380240F0
:101348000024F40000127A0080B489B000AFF8607D
:10135800B9607A60FB681A68BB687B617B6993FA3D
:10136800A3F33B613B69B3FA83F3DBB25B00032170
:1013780001FA03F3DB431A40BB68FB61FB6993FA8C
:10138800A3F3BB61BB69B3FA83F3DBB25B00796893
:1013980001FA03F31A43FB681A6000BF2437BD46FD
:1013A80080BC704780B489B000AFF860B9607A60DB
:1013B800FB685A68BB687B617B6993FAA3F33B615E
:1013C8003B69B3FA83F3DBB2194601238B40DB4355
:1013D8001A40BB68FB61FB6993FAA3F3BB61BB6965
:1013E800B3FA83F3DBB219467B688B401A43FB6878
:1013F8005A6000BF2437BD4680BC704780B489B0AE
:1014080000AFF860B9607A60FB689A68BB687B6176
:101418007B6993FAA3F33B613B69B3FA83F3DBB2CD
:101428005B00032101FA03F3DB431A40BB68FB614D
:10143800FB6993FAA3F3BB61BB69B3FA83F3DBB22D
:101448005B00796801FA03F31A43FB689A6000BFEE
:101458002437BD4680BC704780B489B000AFF860BF
:10146800B9607A60FB68DA68BB687B617B6993FA6C
:10147800A3F33B613B69B3FA83F3DBB25B0003215F
:1014880001FA03F3DB431A40BB68FB61FB6993FA7B
:10149800A3F3BB61BB69B3FA83F3DBB25B00796882
:1014A80001FA03F31A43FB68DA6000BF2437BD462C
:1014B80080BC704780B489B000AFF860B9607A60CA
:1014C800FB681A6ABB687B617B6993FAA3F33B618B
:1014D8003B69B3FA83F3DBB29B000F2101FA03F3F4
:1014E800DB431A40BB68FB61FB6993FAA3F3BB615A
:1014F800BB69B3FA83F3DBB29B00796801FA03F3A3
:101508001A43FB681A6200BF2437BD4680BC704787
:1015180080B489B000AFF860B9607A60FB685A6A35
:10152800BB681B0A7B617B6993FAA3F33B613B6948
:10153800B3FA83F3DBB29B000F2101FA03F3DB4319
:101548001A40BB681B0AFB61FB6993FAA3F3BB61F2
:10155800BB69B3FA83F3DBB29B00796801FA03F342
:101568001A43FB685A6200BF2437BD4680BC7047E7
:1015780080B588B000AF786039600023FB61002334
:10158800BB613B681B687B617B6993FAA3F33B6192
:101598003B69B3FA83F3DBB2FB6150E03B681A683E
:1015A8000121FB6901FA03F31340BB61BB69002BFE
:1015B80042D03B685B68012B03D03B685B68022B19
:1015C8000DD13B689B681A46B9697868FFF716FF22
:1015D8003B68DB681A46B9697868FFF7E3FE3B6841
:1015E8001B691A46B9697868FFF736FF3B685B687C
:1015F800022B1AD1BB69FB60FB6893FAA3F3BB60AB
:10160800BB68B3FA83F3DBB2072B07D83B685B6987
:101618001A46B9697868FFF74DFF06E03B685B69D1
:101628001A46B9697868FFF773FF3B685B681A4622
:10163800B9697868FFF788FEFB690133FB613B688D
:101648001A68FB6922FA03F3002BA7D10023184676
:101658002037BD4680BD000080B400AF034B9B68B7
:1016680003F00C031846BD4680BC704700380240A2
:1016780080B400AF034B9B6803F0F0031846BD46E7
:1016880080BC70470038024080B400AF034B9B68B1
:1016980003F4E0531846BD4680BC7047003802404A
:1016A80080B400AF034B9B6803F460431846BD4603
:1016B80080BC70470038024080B400AF034B5B68C1
:1016C80003F480031846BD4680BC704700380240CA
:1016D80080B400AF044B5B689B09C3F3080318464A
:1016E800BD4680BC704700BF0038024080B400AFE0
:1016F800034B5B6803F440331846BD4680BC704713
:101708000038024080B400AF034B5B6803F03F032E
:101718001846BD4680BC70470038024080B582B08C
:1017280000AF786000F020F802467B681A607B689A
:101738001B68184600F03EF802467B685A607B68D2
:101748005B68184600F04CF802467B689A607B6834
:101758005B68184600F058F802467B68DA6000BFFC
:101768000837BD4680BD000080B582B000AF0023B9
:101778007B60FFF771FF0346042B06D0082B07D0C8
:10178800002B0AD1094B7B600AE0094B7B6007E01C
:10179800082000F04DF8786002E0044B7B6000BF41
:1017A8007B6818460837BD4680BD00BF0024F4009A
:1017B80000127A0080B582B000AF7860FFF758FF5A
:1017C80003461B0903F00F03044AD35C1A467B68DF
:1017D800D34018460837BD4680BD00BF784600088C
:1017E80080B582B000AF7860FFF74EFF03469B0AD2
:1017F800044AD35C1A467B68D34018460837BD466E
:1018080080BD00BF8846000880B582B000AF786010
:10181800FFF746FF03465B0B044AD35C1A467B6816
:10182800D34018460837BD4680BD00BF884600082B
:1018380090B587B000AF786000237B610023FB6020
:1018480000233B61FFF738FFF860FB68002B03D0EB
:10185800B3F5800F03D005E0124B7B6105E0124B16
:101868007B6102E00F4B7B6100BF7B68082B13D1C3
:10187800FFF748FF02467B69B3FBF2F4FFF728FF46
:10188800034603FB04F4FFF731FF03461B0C013347
:101898005B00B4FBF3F33B613B6918461C37BD465C
:1018A80090BD00BF0024F40000127A0080B483B019
:1018B80000AF78607B68DB6803F40053B3F5005F22
:1018C8000CBF01230023DBB218460C37BD4680BC91
:1018D800704780B483B000AF786039607B681B695B
:1018E80023F440523B681A437B681A6100BF0C37E7
:1018F800BD4680BC704780B483B000AF7860396063
:101908007B685B6923F440723B681A437B685A61C1
:1019180000BF0C37BD4680BC704700002DE9F04F72
:1019280085B000AFF860B9607A603B607B68B3F55A
:10193800004F40F0C180BB681D464FF00006A84626
:10194800B14618EB080349EB09049846A14618EB81
:10195800050849EB06094FF000014FF000024FEA75
:10196800C90242EA58724FEAC8018846914618EB04
:10197800050049EB06013B681D464FF000066B1950
:1019880046EB06041A462346FEF71AFC03460C46A5
:101998001A46B54BA3FB02235B099BB21B011FFA36
:1019A80083F8BB681D464FF00006A946B24619EBFE
:1019B80009034AEB0A049946A24619EB05094AEBC2
:1019C800060A4FF000014FF000024FEACA0242EA4D
:1019D80059724FEAC9018946924619EB05004AEB4C
:1019E80006013B681D464FF000066B1946EB0604DE
:1019F8001A462346FEF7E4FB03460C461A469A4B62
:101A0800A3FB02135B09642101FB03F3D31ADB0078
:101A18003233954AA2FB03235B099BB25B009BB25E
:101A280003F4F8739BB243441FFA83F8BB681D465E
:101A38004FF00006A946B24619EB09034AEB0A041F
:101A48009946A24619EB05094AEB060A4FF0000130
:101A58004FF000024FEACA0242EA59724FEAC9013E
:101A68008946924619EB05004AEB06013B681D467C
:101A78004FF000066B1946EB06041A462346FEF79C
:101A88009FFB03460C461A46774BA3FB02135B09E0
:101A9800642101FB03F3D31ADB003233724AA2FB41
:101AA80003235B099BB203F007039BB243449BB239
:101AB8001A46FB689A60D2E0BB689A464FF0000B62
:101AC800D046D94618EB080349EB09049846A146C5
:101AD80018EB0A0849EB0B094FF000014FF0000220
:101AE8004FEAC90242EA58724FEAC801884691464D
:101AF8001AEB08054BEB09063B6819464FF0000244
:101B08004FF000034FF00004940044EA91748B00F6
:101B18001A46234628463146FEF752FB03460C4632
:101B28001A46514BA3FB02235B099BB21B011FFA08
:101B380083F8BB689B464FF0000CD946E24619EB88
:101B480009034AEB0A049946A24619EB0B094AEB2A
:101B58000C0A4FF000014FF000024FEACA0242EAB5
:101B680059724FEAC901894692461BEB09054CEBAD
:101B78000A063B6819464FF000024FF000034FF089
:101B88000004940044EA91748B001A4623462846C0
:101B98003146FEF715FB03460C461A46324BA3FBAB
:101BA80002135B09642101FB03F3D31A1B013233CF
:101BB8002D4AA2FB03235B099BB203F0F0039BB2FF
:101BC80043441FFA83F8BB689B464FF0000CD94684
:101BD800E24619EB09034AEB0A049946A24619EBB7
:101BE8000B094AEB0C0A4FF000014FF000024FEAD4
:101BF800CA0242EA59724FEAC901894692461BEB6A
:101C080009054CEB0A063B6819464FF000024FF0F5
:101C180000034FF00004940044EA91748B001A46C4
:101C2800234628463146FEF7CBFA03460C461A46A9
:101C38000D4BA3FB02135B09642101FB03F3D31AC9
:101C48001B013233084AA2FB03235B099BB203F052
:101C58000F039BB243449BB21A46FB689A6000BFCD
:101C68001437BD46BDE8F08F1F85EB5180B588B0AD
:101C780000AF786039600123FB770023BB61786887
:101C8800FFF714FE0346002B5ED17B68DB6823F464
:101C9800164323F00C033A6851683A68D268114336
:101CA8003A68126911433A6892690A431A437B6891
:101CB800DA603B689B6819467868FFF70AFE3B685C
:101CC8005B6919467868FFF716FE07F1080318469E
:101CD800FFF724FD7B681F4A934202D17B69BB61F1
:101CE80021E07B681C4A934202D13B69BB611AE040
:101CF8007B681A4A934202D13B69BB6113E07B6857
:101D0800174A934202D17B69BB610CE07B68154A94
:101D1800934202D13B69BB6105E07B68124A93425A
:101D280001D13B69BB61BB69002B0DD03B681B68C7
:101D3800002B09D00023FB773B689A693B681B6836
:101D4800B9697868FFF7EAFDFB7F18462037BD467A
:101D580080BD00BF00100140004400400048004022
:101D680000140140004C00400050004080B584B091
:101D780000AF78600B46FB700023FB60FB78002BFC
:101D88002AD17B68002B27D00023FB721EE0294B49
:101D98001968FA7A13465B0013449B000B441B68CE
:101DA80019467868FEF78CFB0346002B0BD1214BB4
:101DB8001968FA7A13465B0013449B000B44FB60D6
:101DC8001D4B1B78FB72FB7A0133FB721A4B1B7895
:101DD800FA7A9A42DBD327E0FB78012B24D17B687F
:101DE800002B21D00023BB721BE0BA7A134913469B
:101DF8005B0013449B000B441B6819467868FEF788
:101E08005FFB0346002B09D1BA7A13465B001344E3
:101E18009B000A4A1344FB600523BB72BB7A01335B
:101E2800BB72BB7A042BE0D9FB6818461037BD4655
:101E380080BD00BF54010020580100200800002088
:101E480080B483B000AF00237B600A4B1B78002B63
:101E58000AD0094B1B68002B06D0084B1B68002BC7
:101E680002D0064B1B687B607B6818460C37BD4662
:101E780080BC70474C010020480100205001002020
:101E880080B582B000AFFFF7DBFF78607B68002B7E
:101E980003D07B68D3F8943000E000231846083755
:101EA800BD4680BD80B586B000AF03463960FB7182
:101EB8003A68FB791146184600F05EFE034603F0C7
:101EC8000303DAB23B7C62F301033B743B7C03F00F
:101ED8000303DBB2002B67D1414A3B6813603B68C0
:101EE8005B68FB603B6803F108027B7BC3F38013EC
:101EF800DBB219461046FFF739FF78617B69002B82
:101F08003DD007F10C037A691946386800F06AF881
:101F1800034603F00303DAB23B7C62F3C4033B7469
:101F28003B7C03F01803DBB2002B0ED107F10C0346
:101F38007A691946386800F0E5F8034603F00103AA
:101F4800DAB23B7C62F345133B7407F10C037A6900
:101F58001946386800F03BF9034603F00303DAB288
:101F68003B7C62F387133B743B68D3F89830002BB3
:101F780013D03B68D3F89830012098470DE03B7C9C
:101F880043F004033B743B68D3F89830002B04D02B
:101F98003B68D3F89830022098473B689422002188
:101FA800184602F02CFB15E03B7C03F00303DBB280
:101FB800022B0FD13B68D3F89830002B04D03B6834
:101FC800D3F89830032098473B689422002118469C
:101FD80002F015FB3B6918461837BD4680BD00BFA7
:101FE8005001002080B586B000AFF860B9607A6013
:101FF8000023FB757B681B7903F00F03BA685278DE
:10200800C2F38302D2B293420CBF01230023DBB296
:10201800BB75BB7D002B67D07B681B7903F00F0372
:10202800002B0CBF01230023DBB27B757B681B7977
:102038005BB2DB43DBB2DB09DBB23B757B7D002B9C
:1020480027D0BB689B7803F01003DBB2002B06D0C7
:10205800BB689B7823F01F03DBB2002B0DD1BB6854
:102068009B7803F01003DBB2002B46D1BB689B784A
:1020780023F01F03DBB2002B3FD17B689B683B61D9
:102088003B69002B02D03B69984736E00123FB757A
:1020980033E0FB681B68C3F309239BB2002B2CD0E9
:1020A8003B7D002B1DD0FB681B8B1A46BB681B8829
:1020B800C3F309039BB213447A68D288934210DCB5
:1020C8007B689B68FA68128B9818FB6803F11A0101
:1020D800BB681B88C3F309039BB21A4602F084FA53
:1020E8000BE00223FB7508E0BB685B7803F03C0358
:1020F800DBB2082B01D00323FB75FB7D184618378C
:10210800BD4680BD90B589B002AFF860B9607A600D
:102118000023FB75BB689B7823F01F03DBB2002B01
:1021280050D0BB689B7803F01003DBB2002B49D07A
:102138003B8A6FF309033B827B681B7903F00F032B
:10214800DAB27B7C62F385037B74BB685B78C3F38C
:102158008013DAB27B7C62F386137B74BB685B788E
:10216800C3F3C013DAB27B7C62F3C7137B747B685A
:102178001B681846FEF7AEF9034603F00F03DAB200
:10218800BB7C62F30303BB74BB7C6FF30413BB74A7
:10219800BB689B78C3F34213DAB2BB7C62F3471384
:1021A800BB74FB68D3F894007B681A68FB681C8BC7
:1021B8007B689B6807F110010093234600F014FC2C
:1021C8000346FB75FB7D18461C37BD4690BD80B5A0
:1021D8008AB002AFF860B9607A600023FB77BB6809
:1021E8009B7803F01003DBB2002B58D0BB689B78B8
:1021F80023F01F03DBB2002B51D1BB685B78C3F31C
:102208008013DAB23B7D62F300033B753B7D6FF3CD
:1022180041033B757B681B7903F00F03DAB23B7D02
:1022280062F385033B75BB685B7803F03C03DBB264
:10223800082B0BD0FB68D3F8943007F114027968A7
:10224800184600F031F80346FB7728E00023BB83EB
:1022580000237B83FB68DB7E9BB21B02BB83FB688E
:102268009B7E9AB2BB8B1343BB83FB685B7F9BB29D
:102278001B027B83FB681B7F9AB27B8B13437B8398
:10228800FB68D3F89400B98B07F114027B8B009399
:102298000B46796800F043F803465B00FB77FB7F49
:1022A80018462037BD4680BD80B588B002AFF860BB
:1022B800B9607A600123FB75FB68002B2AD0BB68E4
:1022C800002B27D0BB681B7903F00F03D9B27A68BB
:1022D800137861F385031370BB68DB88782B0ED8FD
:1022E800BB681A68BB68D988BB689B6800930B46B3
:1022F8007968F86800F036FA0346FB750AE0BB68AF
:10230800DB88009300237A68B968F86800F007F85A
:102318000346FB75FB7D18461837BD4680BD90B552
:102328008BB002AFF860B9607A607B800123FB77DD
:102338000023BB61BB681B7903F00F03DAB2BB68EB
:10234800DC88398E788807F118030233019307F186
:1023580018030093234600F01FFE00237B617B686F
:102368001B78C3F30003DAB27B7D62F386137B75B7
:102378007B681B78C3F34003DAB2BB7D62F30413B6
:10238800BB75BB681B681846FEF7A4F8034603F044
:102398000F03DAB2BB7D62F30303BB75BB8A042269
:1023A80062F30903BB827B7D022262F385037B759E
:1023B800BB681A6807F1140107F11803009300239A
:1023C800F86800F011FB0346FB777B7D43F0800340
:1023D8007B75BB681B7903F00F03DAB27B7D62F370
:1023E80085037B752AE03A8E7B88D31ABB83BB8B27
:1023F800782B05D9BB8A782262F30903BB8207E0F0
:10240800BB8BC3F309039AB2BB8A62F30903BB828D
:10241800BB8AC3F309039BB21A463B8E9B1A3B86C1
:10242800BB681A68BB689B68388E07F11401009373
:102438000346F86800F0D8FA0346FB773A8E7B88A3
:102448009A4202D9FB7F002BCDD0FB7F1846243758
:10245800BD4690BD90B585B000AF78607B68002B15
:1024680017D00023FB603B7B6FF300033B733B7B80
:102478006FF341033B73FFF703FD044600217868BF
:10248800FFF774FC014607F10C031A462046FFF7D4
:102498000BFF00BF1437BD4690BD000080B483B069
:1024A80000AF78600B46FB707B68002B0CD0FB7884
:1024B800002B09D00B4A7B6813600B4AFB7813701A
:1024C8000A4A7B68136008E0064B00221A60064B34
:1024D80000221A70054B00221A6000BF0C37BD4657
:1024E80080BC7047480100204C01002050010020AA
:1024F80080B483B000AF78600B46FB707B68002B1C
:1025080009D0FB78002B06D0084A7B681360084A7C
:10251800FB78137005E0054B00221A60044B00227B
:102528001A7000BF0C37BD4680BC704754010020AC
:102538005801002080B584B000AF78600B46FB706E
:102548007B68002B15D0FB78002B12D00023FB737F
:102558000AE0FB7B7A6813441B780949184600F0A7
:10256800D1FCFB7B0133FB73FA7BFB789A42F0D3F7
:1025780002E0034B00221A8000BF1037BD4680BD21
:102588005A01002080B584B002AF0023FB7100F02F
:1025980021F80346FB7100233B603B7843F00103BD
:1025A8003B703B786FF341033B703B78062262F344
:1025B80085033B70FFF764FC3946FB1D009301233C
:1025C800034A00F0CFF800BF0837BD4680BD00BF02
:1025D8004446000880B596B002AF002387F84F3014
:1025E80000237B6497F8443043F0010387F84430B4
:1025F80097F844306FF3410387F8443097F8443034
:10260800012262F3850387F84430002387F84E30AF
:10261800002387F84B30002387F84D30002387F8D4
:102628004C305EE0354B196897F84C2013465B0038
:1026380013449B000B441B681846FDF74BFF0346E9
:10264800DBB2013387F84B3097F84E303A1DD0187B
:102658002A4B196897F84C2013465B0013449B00DB
:102668000B441B6897F84B20194601F0BDFF97F8FB
:102678004E2097F84B30134487F84E3097F84D307A
:10268800013387F84D3097F84F30013387F84F30D2
:1026980097F84E30372B06D8194B1B785A1E97F8E7
:1026A8004C309A4218DCFFF7EBFB97F84E309AB2A1
:1026B80007F144013B1D00931346124A00F052F8FB
:1026C8003B1D40220021184601F099FF002387F89E
:1026D8004E30002387F84D3097F84C30013387F897
:1026E8004C30074B1B7897F84C209A429AD397F8AE
:1026F8004F3018465037BD4680BD00BF54010020FA
:10270800580100204846000880B582B000AF002379
:102718003B603B786FF300033B703B786FF34103FA
:102728003B700023FB7110E0FFF7AAFB0B4B196805
:10273800FA7913465B0013449B000B443A4619464A
:10274800FFF7B2FDFB790133FB71054B1B78FA7972
:102758009A42E9D300BF0837BD4680BD5401002026
:102768005801002080B588B002AFF860B9607A607F
:102778007B80BB681B78C3F30003DAB27B7D62F30E
:1027880086137B75BB681B78C3F34003DAB2BB7D45
:1027980062F30413BB75BB681B78C3F38303DAB217
:1027A8007B7D62F385037B75BB7D6FF34713BB7538
:1027B8007B7D6FF3C7137B757868FDF78BFE034647
:1027C80003F00F03DAB2BB7D62F30303BB757B88AA
:1027D800C3F309039AB2BB8A62F30903BB8207F108
:1027E80014013B6A009300237A68F86800F0FCF84B
:1027F800034618461837BD4680BD80B485B000AF83
:10280800786039600023FB737B68002B00F08E80B2
:102818003B68002B00F08A807B681B88C3F30903A0
:1028280099B2FB7B3A681344CAB21A70FB7B013336
:10283800FB73FB7B3A68134419787B681B88C3F3E6
:1028480009039BB21B0A9BB2DAB2FB7B38680344CC
:102858000A43D2B21A70FB7B3A68134419787B6832
:102868005B78C3F38303DBB29B00DAB2FB7B386887
:1028780003440A43D2B21A70FB7B3A6813441978AE
:102888007B685B78C3F38013DBB29B01DAB2FB7B16
:10289800386803440A43D2B21A70FB7B3A6813447F
:1028A80019787B685B78C3F3C013DBB2DB01DAB25B
:1028B800FB7B386803440A43D2B21A70FB7B0133AE
:1028C800FB73FB7B3A6813441A787B689B78C3F3E5
:1028D8000303DBB21846FB7B39680B440243D2B2D0
:1028E8001A70FB7B3A68134419787B689B78C3F3AA
:1028F8000013DBB21B01DAB2FB7B386803440A43DE
:10290800D2B21A70FB7B3A68134419787B689B78BB
:10291800C3F34213DBB25B01DAB2FB7B38680344D2
:102928000A43D2B21A70FB7B0133FB73FB7B184658
:102938001437BD4680BC704780B485B000AF78605E
:102948000B467B800023FB810123BB813FE0BB89D1
:10295800DAB2FB89DBB2D31A7B72BB897A6813447B
:102968001B78002B07D1FB897A6813447A7A1A708E
:10297800BB89FB8128E07B7AFF2B25D1FB897A680C
:102988001344FF221A7001237B8110E07A887B8927
:10299800D31A013B7A681A4479887B89CB1A19467D
:1029A8007B680B4412781A707B8901337B817A89A2
:1029B8007988BB89CB1A9A42E8DBBB897A681344C9
:1029C800EE221A70BB89FB81BB890133BB81BA89AE
:1029D8007B889A42BBD37B6800221A700023184672
:1029E8001437BD4680BC704780B5ACB000AFF86006
:1029F800B9607A607B80012387F8AF30FB68002BD1
:102A080000F0B480BB68002B00F0B0807B68002B1E
:102A180000F0AC80D7F8B830002B00F0A78007F1A1
:102A2800100395220021184601F0E9FD0223A7F8BA
:102A3800AC30B7F8AC3007F1100213441946B86847
:102A4800FFF7DBFE03469AB2B7F8AC301344A7F899
:102A5800AC30B7F8AC3007F11002D018BB689B78DF
:102A6800C3F30303DBB21A46796801F0BDFDBB6806
:102A78009B78C3F30303DBB29AB2B7F8AC301344C4
:102A8800A7F8AC30BB685B7823F07F03DBB2002B80
:102A98000BD0B7F8AC3007F1100213447A881A80CB
:102AA800B7F8AC300233A7F8AC30B7F8AC3007F160
:102AB8001002D0187B881A46D7F8B8309918BB6826
:102AC8001B88C3F309039BB21A4601F08DFDBB684E
:102AD8001B88C3F309039BB21A46B7F8AC301344FA
:102AE800A7F8AC304FF6FF73A7F8A8300223A7F871
:102AF800AA3011E0B7F8AA3007F1B002134413F86E
:102B0800A03C07F1A8021146184600F0FBF9B7F8F7
:102B1800AA300133A7F8AA30B7F8AA20B7F8AC3022
:102B28009A42E7D3B7F8AC3007F110021344B7F86C
:102B3800A8201A80B7F8AC300233A7F8AC30B7F841
:102B4800AC300133A7F8AC30B7F8AC2007F110036C
:102B580011461846FFF7F0FEB7F8AC1007F110025F
:102B6800FB6810469847002387F8AF3097F8AF30D6
:102B78001846B037BD4680BD80B584B000AF034667
:102B88003960FB710123FB73FB79002B0AD13A688A
:102B980013786FF3030313703B684FF6FF72A3F8C3
:102BA80092202CE03B68DB78012B06D93B68DB7868
:102BB800013BDAB23B68DA7004E03B68FA79DA7014
:102BC8000023FB713B681B78C3F30303DBB2072BBD
:102BD8000ED83B681B7803F00F03DBB2002B07D03D
:102BE8003B6803F19202FB791146184600F08AF916
:102BF800FB793968184600F007F80346FB73FB7B3E
:102C080018461037BD4680BD80B485B000AF034676
:102C18003960FB710123FB733B681B78C3F3030323
:102C2800DBB2092B00F2628101A252F823F000BF47
:102C3800612C00086F2C00088F2C00080D2D00084F
:102C4800592D0008FD2D0008132E0008352E000808
:102C5800B32E0008D72E00083A681378012161F3D3
:102C68000303137048E1FB79C3F3090399B23A6887
:102C7800938861F3090393803A681378022161F31A
:102C88000303137038E13B689B88C3F309039BB2C5
:102C98001A46FB799BB21B029BB203F440739BB2AA
:102CA80013439BB2C3F3090399B23A68938861F35B
:102CB80009039380FB799B08DBB203F00F03D9B2B9
:102CC8003A68537961F385035371FB799B09DBB249
:102CD80003F00103D9B23A68537961F3861353714B
:102CE800FB79DB09DBB203F00103D9B23A68537907
:102CF80061F3C71353713A681378032161F303032F
:102D08001370F9E0FB7903F00F03D9B23A689379AD
:102D180061F303039371FB791B09DBB203F0010331
:102D2800D9B23A68937961F304139371FB795B091B
:102D3800DBB203F00703D9B23A68937961F347131A
:102D480093713A681378042161F303031370D3E095
:102D58003B681B78C3F30313DBB21A463B68134482
:102D6800FA791A723B681B78C3F30313DBB2013399
:102D780003F00F03D9B23A68137861F3071313709D
:102D88003B681B78C3F30313DAB23B689B79C3F340
:102D98000303DBB29A42C0F0AC803B681B78C3F3F4
:102DA8000313DBB21A463B68134400221A723B68CD
:102DB8005B7923F07F03DBB2002B06D03A681378E7
:102DC800052161F30303137093E03B689B88C3F309
:102DD80009039BB2002B06D03A681378072161F3E8
:102DE8000303137085E03A681378082161F303033D
:102DF80013707EE0FB799AB23B681A833A681378BD
:102E0800062161F30303137076E03B681A8BFB79A4
:102E18009BB21B029BB213439AB23B681A833A686F
:102E28001378072161F30303137065E03B681B689F
:102E3800C3F309239BB21A463B681344FA799A767E
:102E48003B681B68C3F309239BB20133C3F309032F
:102E58009AB23B68D1B2002001435970120A92B26B
:102E680002F0030202F003009A7822F003021146EE
:102E780002460A439A703B681B68C3F309239AB257
:102E88003B689B88C3F309039BB29A4206D23B680E
:102E98001B68C3F309239BB2772B2CD93A681378A4
:102EA800082161F30303137025E03B68B3F89230FF
:102EB800BB73FA79BB7B9A4206D13A681378092129
:102EC80061F30303137017E00223FB7314E0FB792B
:102ED8009AB23B68B3F892301B0A9BB29A4202D16D
:102EE8000023FB7308E00223FB7305E00223FB7356
:102EF80002E000BF00E000BFFB7B18461437BD4668
:102F080080BC704780B483B000AF03463960FB7162
:102F18003B681B881B0A9BB2DBB21AB23B681B8852
:102F28001B021BB213431BB29AB23B681A803B6860
:102F38001A88FB799BB253409AB23B681A803B6867
:102F48001A883B681B88DBB21B09DBB29BB2534073
:102F58009AB23B681A803B681B881AB23B681B8888
:102F68001B031BB253401BB29AB23B681A803B68E2
:102F78001B881AB23B681B885B011BB203F4FF5322
:102F88001BB253401BB29AB23B681A8000BF0C3781
:102F9800BD4680BC7047000090B484B000AF0446C2
:102FA800084611461A462346FB800346BB800B465B
:102FB800FB7013463B800023FB73FB78073B052B14
:102FC80017D801A252F823F0E92F0008E92F0008CA
:102FD800EF2F0008EF2F0008EF2F0008F52F00084B
:102FE8000223FB7308E00423FB7305E00823FB734B
:102FF80002E00123FB7300BFFA88FB7B013B1A4404
:10300800FB7B92FBF3F39AB2FB7B9BB212FB03F3BD
:103018009AB2BB691A80BA88FB7B013B1A44FB7BD6
:1030280092FBF3F39AB2FB7B9BB212FB03F39AB2C7
:10303800FB691A80BA883B889A4202D8BB88002B61
:1030480002D1FB693A881A80BB691A88FB691B8818
:103058009A4207D3FB691A88FB7B9BB2D31A9AB2B0
:10306800BB691A8000BF1037BD4690BC704700BFCF
:1030780080B58AB000AF07F1140300221A605A60C5
:103088009A60DA601A6100233B61344B1B6B334A48
:1030980043F004031363314B1B6B03F004033B61E0
:1030A8003B690023FB602D4B1B6B2C4A43F08003CC
:1030B80013632A4B1B6B03F08003FB60FB68002340
:1030C800BB60264B1B6B254A43F001031363234B5C
:1030D8001B6B03F00103BB60BB6800237B601F4BC5
:1030E8001B6B1E4A43F0020313631C4B1B6B03F05C
:1030F80002037B607B6800233B60184B1B6B174AFD
:1031080043F008031363154B1B6B03F008033B6084
:103118003B6800224FF470411148FDF7CFFC0423AF
:103128007B610023BB610023FB6107F1140319468F
:103138000C48FDF729FB4FF470437B610123BB6109
:103148000023FB6100233B6207F11403194604487E
:10315800FDF71AFB00BF2837BD4680BD0038024086
:10316800000C02400004024080B485B000AF7860D3
:103178007B6803F00703FB600C4BDB68BB60BA6835
:103188004FF6FF031340BB60FB681A02BB6813438A
:1031980043F0BF6343F40033BB60044ABB68D360A9
:1031A80000BF1437BD4680BC704700BF00ED00E08B
:1031B80080B485B000AF7860084B1A6C07497B680B
:1031C80013430B64054B1A6C7B681340FB60FB6868
:1031D80000BF1437BD4680BC704700BF00380240AE
:1031E80080B485B000AF7860084B5A6C07497B689B
:1031F80013434B64054B5A6C7B681340FB60FB68B8
:1032080000BF1437BD4680BC704700BF003802407D
:1032180080B500AFFDF766F94FF48040FFF7E0FF97
:103228004FF08050FFF7C4FF0320FFF79DFF00F029
:1032380061F8FFF71DFF00F015FF01212448FFF793
:103248002DF904212348FFF753F90C212248FFF7F1
:1032580071F9FDF7ABF90246204B1A6006E001F060
:1032680045F803461A491846FEF71CFE01F034F8E3
:103278000346002BF3D11A4B1B78002BF6D0FDF731
:1032880095F90246154B1B68D31A164A12889342C1
:10329800ECD31548FFF7DEF8144B1B78002B0CBF56
:1032A80001230023DBB21A46104B1A700F4B1B7810
:1032B8001A464FF400510E48FDF700FC0A48FFF784
:1032C800C9F8FDF773F90246044B1A60CEE700BF50
:1032D80058000020F4000020107AFF1F6001002031
:1032E8004400002046000020584600085C010020E9
:1032F800000C024080B594B000AF07F120033022E3
:103308000021184601F07BF907F10C0300221A602E
:103318005A609A60DA601A610023BB60284B1B6C04
:10332800274A43F080531364254B1B6C03F08053EA
:10333800BB60BB6800237B60224B1B68214A43F4B7
:10334800804313601F4B1B6803F480437B607B68DA
:1033580001233B624FF480337B620223BB634FF44B
:103368008003FB6308233B644FF4A8737B64022348
:10337800BB640723FB6407F120031846FDF7B6FB7F
:103388000346002B01D000F01FF80F23FB60022337
:103398003B6100237B614FF4A053BB614FF4805322
:1033A800FB6107F10C0305211846FDF70FFE0346E4
:1033B800002B01D000F008F800BF5037BD4680BD93
:1033C800003802400070004080B400AF00BFBD4626
:1033D80080BC704780B584B000AFF860B9607A608F
:1033E800FB68002B05D0BB68002B02D07B68002B44
:1033F80001D100230BE010220021F86801F0FFF84A
:10340800FB687A685A60FB68BA681A600123184634
:103418001037BD4680BD80B588B000AFF860B96090
:103428007A60BB68FB61FB68002B0AD0FB681B68ED
:10343800002B06D0FB685B68002B02D07B68002B52
:1034480001D1002347E0F86800F0ADF8B8617A6868
:10345800BB69934228BF13467B607B68002B01D170
:10346800002338E0FB685A68FB68DB68D31A7A687F
:10347800934228BF13467B61FB681A68FB68DB68C8
:1034880013447A69F969184601F0AEF8FB68DA68FE
:103498007B691A44FB68DA607A687B69D31A7B60B7
:1034A8007B68002B0BD0FB681868FA697B691344AA
:1034B8007A68194601F098F8FB687A68DA60FB6860
:1034C800DA68FB685B689A4202D3FB680022DA601C
:1034D8007A697B68134418462037BD4680BD80B59D
:1034E80088B000AFF860B9607A60BB68FB61FB68C0
:1034F800002B0AD0FB681B68002B06D0FB685B68B2
:10350800002B02D07B68002B01D1002347E0F8682C
:1035180000F07FF8B8617A68BB69934228BF134608
:103528007B607B68002B01D1002338E0FB685A6878
:10353800FB689B68D31A7A68934228BF13467B615D
:10354800FB681A68FB689B6813447A691946F8692E
:1035580001F04AF8FB689A687B691A44FB689A602C
:103568007A687B69D31A7B607B68002B0BD0FA6979
:103578007B69D018FB681B687A68194601F034F833
:10358800FB687A689A60FB689A68FB685B689A428D
:1035980002D3FB6800229A607A697B681344184654
:1035A8002037BD4680BD80B487B000AF78607B68A7
:1035B800002B07D07B681B68002B03D07B685B68F7
:1035C800002B01D100231FE07B68DB683B617B682F
:1035D8009B68FB603A69FB689A4203D17B685B6829
:1035E8007B610FE0FA683B699A4204D9FA683B6943
:1035F800D31A7B6106E07B685A68F9683B69CB1A85
:1036080013447B617B69013B18461C37BD4680BC6F
:10361800704780B487B000AF78607B68002B07D014
:103628007B681B68002B03D07B685B68002B01D18B
:1036380000231DE07B68DB683B617B689B68FB605F
:103648003A69FB689A4202D100237B610FE03A692C
:10365800FB689A4204D93A69FB68D31A7B6106E091
:103668007B685A683969FB68CB1A13447B617B69AC
:1036780018461C37BD4680BC704780B483B000AF85
:1036880078607B68002B07D07B681B68002B03D011
:103698007B685B68002B01D1002304E07B681A6813
:1036A8007B689B68134418460C37BD4680BC70473E
:1036B80080B487B000AF78607B68002B07D07B6848
:1036C8001B68002B03D07B685B68002B01D10023AB
:1036D8001BE07B68DB683B617B689B68FB603A6941
:1036E800FB689A4204D93A69FB68D31A7B610BE0FC
:1036F800FA683B699A4205D97B685A68FB68D31A0D
:103708007B6101E000237B617B6918461C37BD465D
:1037180080BC704780B584B000AF786039607B6842
:10372800002B0AD07B681B68002B06D07B685B687F
:10373800002B02D03B68002B01D100231BE07868E6
:10374800FFF767FFF8607B689A68F9683B688B4207
:1037580028BF0B461A447B689A607B689A687B6826
:103768005B689A4206D37B689A687B685B68D21A62
:103778007B689A603B6818461037BD4680BD0000DC
:1037880080B582B000AF00237B60104B5B6C0F4AA2
:1037980043F4804353640D4B5B6C03F480437B60BC
:1037A8007B6800233B60094B1B6C084A43F080533D
:1037B8001364064B1B6C03F080533B603B68072087
:1037C800FCF7AEFF00BF0837BD4680BD0038024099
:1037D80080B400AF00BFBD4680BC704780B400AF66
:1037E800FEE780B400AFFEE780B400AFFEE780B428
:1037F80000AFFEE780B400AF00BFBD4680BC704795
:1038080080B400AF00BFBD4680BC704780B400AF35
:1038180000BFBD4680BC704780B500AFFCF7B4FE62
:1038280000BF80BD80B400AF034B4FF000629A60C8
:1038380000BFBD4680BC704700ED00E080B400AF1B
:10384800044BDB681B0A03F007031846BD4680BC1F
:10385800704700BF00ED00E080B483B000AF0346BE
:10386800FB7197F90730002B0BDBFB7903F01F0284
:10387800064997F907305B09012000FA02F241F87E
:10388800232000BF0C37BD4680BC704700E100E034
:1038980080B483B000AF03463960FB7197F90730F5
:1038A800002B0ADB3B68DAB20C4997F907301201A2
:1038B800D2B20B4483F800230AE03B68DAB2084925
:1038C800FB7903F00F03043B1201D2B20B441A76C2
:1038D80000BF0C37BD4680BC704700BF00E100E068
:1038E80000ED00E080B489B000AFF860B9607A609C
:1038F800FB6803F00703FB61FB69C3F10703042BB3
:1039080028BF0423BB61FB690433062B02D9FB697A
:10391800033B00E000237B614FF0FF32BB6902FAF2
:1039280003F3DA43BB681A407B699A404FF0FF31D2
:103938007B6901FA03F3D9437B680B4013431846AC
:103948002437BD4680BC704780B483B000AF786030
:103958007B68DB6843F400527B68DA6000BF0C3791
:10396800BD4680BC704780B483B000AF78607B6888
:103978001B6923F490427B681A617B685B6923F0BA
:103988002A027B685A6100BF0C37BD4680BC70476D
:1039980080B483B000AF78607B681B6803F01003C5
:1039A800102B0CBF01230023DBB218460C37BD4691
:1039B80080BC704780B485B000AF78607B681B68B6
:1039C800FB60FB687B685B68FB60FB6800BF1437C3
:1039D800BD4680BC704780B483B000AF78607B6818
:1039E800DB6843F010027B68DA6000BF0C37BD4625
:1039F80080BC704780B483B000AF78607B68DB68B8
:103A080003F01003102B0CBF01230023DBB2184670
:103A18000C37BD4680BC704780B483B000AF786077
:103A28007B685B6943F040027B685A6100BF0C37D2
:103A3800BD4680BC704780B483B000AF78607B68B7
:103A48005B6943F080027B685A6100BF0C37BD4652
:103A580080BC704780B485B000AF7860084B1A6BA3
:103A680007497B6813430B63054B1A6B7B6813404C
:103A7800FB60FB6800BF1437BD4680BC704700BFC1
:103A88000038024080B485B000AF7860084B1A6CEB
:103A980007497B6813430B64054B1A6C7B6813401A
:103AA800FB60FB6800BF1437BD4680BC704700BF91
:103AB8000038024080B483B000AF786039600B4AA8
:103AC8003B6813441B781A467B6813441B680749F4
:103AD8003A680A44127811467A680A4443F00103A6
:103AE800136000BF0C37BD4680BC70479046000885
:103AF80080B483B000AF786039600A4A3B681344E9
:103B08001B781A467B6813441B6803F00103012BDA
:103B18000CBF01230023DBB218460C37BD4680BC1E
:103B2800704700BF9046000880B485B000AFF860C9
:103B3800B9607A600C4ABB6813441B781A46FB6864
:103B480013441B6823F0C0020749BB680B441B7869
:103B58001946FB680B4419467B6813430B6000BF8A
:103B68001437BD4680BC70479046000880B485B0C5
:103B780000AFF860B9607A600C4ABB6813441B78E0
:103B88001A46FB6813441B6823F490720749BB6804
:103B98000B441B781946FB680B4419467B68134392
:103BA8000B6000BF1437BD4680BC704790460008C4
:103BB80080B485B000AFF860B9607A600C4ABB6821
:103BC80013441B781A46FB6813441B6823F40072DD
:103BD8000749BB680B441B781946FB680B44194618
:103BE8007B6813430B6000BF1437BD4680BC704729
:103BF8009046000880B485B000AFF860B9607A607C
:103C08000C4ABB6813441B781A46FB6813441B68AC
:103C180023F480620749BB680B441B781946FB688C
:103C28000B4419467B6813430B6000BF1437BD462D
:103C380080BC70479046000880B485B000AFF8603B
:103C4800B9607A600C4ABB6813441B781A46FB6853
:103C580013441B6823F4C0520749BB680B441B7804
:103C68001946FB680B4419467B6813430B6000BF79
:103C78001437BD4680BC70479046000880B485B0B4
:103C880000AFF860B9607A600C4ABB6813441B78CF
:103C98001A46FB6813441B6823F4C0420749BB68F3
:103CA8000B441B781946FB680B4419467B68134381
:103CB8000B6000BF1437BD4680BC704790460008B3
:103CC80080B485B000AFF860B9607A600C4ABB6810
:103CD80013441B781A46FB6813441B6823F44032CC
:103CE8000749BB680B441B781946FB680B44194607
:103CF8007B6813430B6000BF1437BD4680BC704718
:103D08009046000880B485B000AFF860B9607A606A
:103D18000C4ABB6813441B781A46FB6813445B685B
:103D28001B0C1B040749BA680A4412781146FA6842
:103D38000A4411467A6813434B6000BF1437BD46E6
:103D480080BC70479046000880B483B000AF7860AC
:103D58003960074A3B6813441B781A467B6813444A
:103D68005B689BB218460C37BD4680BC704700BFE5
:103D78009046000880B485B000AFF860B9607A60FA
:103D88000C4ABB6813441B781A46FB6813441B682B
:103D980023F060620749BB680B441B781946FB682F
:103DA8000B4419467B6813430B6000BF1437BD46AC
:103DB80080BC70479046000880B483B000AF78603C
:103DC80039600B4A3B6813441B781A467B681344D6
:103DD8005B6907493A680A44127811467A680A44C6
:103DE80023F00403536100BF0C37BD4680BC704705
:103DF8009046000880B485B000AFF860B9607A607A
:103E0800074ABB6813441B781A46FB6813441A46D2
:103E18007B68D36000BF1437BD4680BC704700BFC5
:103E28009046000880B485B000AFF860B9607A6049
:103E3800074ABB6813441B781A46FB6813441A46A2
:103E48007B68936000BF1437BD4680BC704700BFD5
:103E58009046000880B483B000AF78607B681B6828
:103E680003F48063B3F5806F0CBF01230023DBB23A
:103E780018460C37BD4680BC704780B483B000AF8D
:103E880078607B681B6803F40063B3F5006F0CBFB0
:103E980001230023DBB218460C37BD4680BC7047AF
:103EA80080B483B000AF78607B681B6803F0006360
:103EB800B3F1006F0CBF01230023DBB218460C37A7
:103EC800BD4680BC704780B483B000AF78607B6823
:103ED8004FF480629A6000BF0C37BD4680BC7047C3
:103EE80080B483B000AF78607B684FF080629A60DE
:103EF80000BF0C37BD4680BC704780B483B000AFAC
:103F080078607B684FF400629A6000BF0C37BD464A
:103F180080BC704780B483B000AF78607B684FF096
:103F280000629A6000BF0C37BD4680BC704780B401
:103F380083B000AF78607B684FF000729A6000BF72
:103F48000C37BD4680BC704780B483B000AF786042
:103F58007B684FF080729A6000BF0C37BD4680BC0A
:103F6800704780B483B000AF78607B684FF48002FC
:103F78009A6000BF0C37BD4680BC704780B483B0E0
:103F880000AF786039600B4A3B6813441B781A46C7
:103F98007B6813441B6807493A680A44127811463B
:103FA8007A680A4443F00803136000BF0C37BD4623
:103FB80080BC70479046000880B483B000AF78603A
:103FC80039600B4A3B6813441B781A467B681344D4
:103FD8001B6807493A680A44127811467A680A4405
:103FE80043F01003136000BF0C37BD4680BC704718
:103FF8009046000880B483B000AF786039600A4A00
:104008003B6813441B781A467B6813441B6803F00B
:104018000803082B0CBF01230023DBB218460C371A
:10402800BD4680BC704700BF9046000880B483B08E
:1040380000AF786039600A4A3B6813441B781A4617
:104048007B6813441B6803F01003102B0CBF01237B
:104058000023DBB218460C37BD4680BC704700BF52
:104068009046000880B58EB000AF4FF48062894951
:104078008948FFF7AFF9802288498948FFF7AAF9EC
:1040880007F11C0300221A605A609A60DA601A610C
:104098005A619A613B1D00221A605A609A60DA6080
:1040A8001A615A614FF48020FFF7ECFC0820FFF7F3
:1040B800D1FC4FF40010FFF7CDFC4FF440737B6048
:1040C8000223BB600323FB6000233B6101237B6168
:1040D8000723BB613B1D19467248FDF749FA4FF0AB
:1040E800006203217048FFF745FE402203216E4815
:1040F800FFF71AFD002203216B48FFF7E1FD0022BC
:1041080003216948FFF732FD002203216648FFF7C3
:104118004FFD4FF4806203216348FFF76BFD0022D7
:1041280003216148FFF788FD002203215E48FFF75D
:10413800A5FD03215C48FFF73FFE5C4A03215A486E
:10414800FFF770FE03215848FFF736FFFFF776FBAD
:104158000346012205211846FFF7C4FB034619460A
:104168000E20FFF795FB0E20FFF776FB4FF000625D
:1041780001214D48FFF7FEFD002201214A48FFF7C3
:10418800D3FC002201214848FFF79AFD4FF48072C2
:1041980001214548FFF7EAFC002201214248FFF7C8
:1041A80007FD4FF4806201213F48FFF723FD0022FD
:1041B80001213D48FFF740FD002201213A48FFF761
:1041C8005DFD01213848FFF7F7FD384A01213648DF
:1041D800FFF728FE364B1A4601213348FFF70AFE3F
:1041E800402201213048FFF78DFD01212E48FFF7BD
:1041F800C5FE01212C48FFF7DFFEFFF71FFB034632
:10420800002205211846FFF76DFB034619460C20CE
:10421800FFF73EFB0C20FFF71FFB4FF4E133FB6178
:1042280000233B6200237B620023BB620C23FB62FA
:1042380000233B6300237B6307F11C0319461D48D9
:10424800FDF714FD1B48FFF78EFB1A48FFF7F3FB39
:104258001848FFF7E1FB1748FFF7BDFBFFF7EEFA39
:104268000346002205211846FFF73CFB0346194682
:104278002720FFF70DFB2720FFF7EEFA01210A4858
:10428800FFF718FC0B48FFF75FFB00BF3837BD4648
:1042980080BD00BF7401002064010020C805002013
:1042A80078050020000C02400060024004480040ED
:1042B800880500200048004080B582B000AF7860D3
:1042C80039603A6879680348FFF7A5F800BF0837EE
:1042D800BD4680BD7805002080B500AF0248FFF7D5
:1042E80098F90346184680BD7805002080B582B04D
:1042F80000AF0023FB71FB1D012219460348FFF79D
:10430800EEF8FB7918460837BD4680BD78050020D1
:1043180080B584B000AF786039600023FB730A4829
:10432800FFF741F902463B68934208D83A68796832
:104338000548FFF770F800F009F80123FB73FB7BD1
:1043480018461037BD4680BD6401002080B584B092
:1043580000AFEFF310837B607B68FB6072B60321CC
:104368002148FFF7C5FB0346002B34D11F48FFF750
:104378009FF902461E4B1A601D4B1B68202B02D961
:104388001B4B20221A601A4B1B68002B23D017489E
:10439800FFF773F9B860164B1B681A4603211248D9
:1043A800FFF7B0FCBB681A4603210F48FFF722FD50
:1043B8000D48FFF7AFFD0C48FFF792FD0A48FFF7DD
:1043C800C3FD0948FFF7CDFD0748FFF7B0FD0321FE
:1043D8000548FFF76FFBFB683B603B6883F3108879
:1043E80000BF1037BD4680BD006002406401002058
:1043F8007405002080B582B000AF01211E48FFF788
:10440800A3FC0346C3F140037B601C4B1B687A681E
:104418009A4223D0194B1B687A689A420BD9174BDA
:104428001B68174A9818154B1B687A68D31A1946DF
:10443800FFF742FF12E0114B1B68114A1A440F4B59
:104448001B68C3F1400319461046FFF735FF7B6828
:10445800002B03D079680A48FFF72EFF074A7B68CC
:104468001360064B1B68402B02D1044B00221A60D4
:1044780000BF0837BD4680BD0060024048060020E6
:104488008805002080B500AF01211248FFF7B2FD72
:104498000346002B0AD00F48FFF7DCFC0346002B2D
:1044A80004D00C48FFF70FFDFFF7A4FF01210948CE
:1044B800FFF7BCFD0346002B0AD00648FFF7DDFCDA
:1044C8000346002B04D00348FFF717FDFFF792FFC0
:1044D80000BF80BD0060024080B500AF03210C48DA
:1044E800FFF7A4FD0346002B10D00948FFF7D8FCBE
:1044F8000346002B0AD00648FFF70CFD054B1B6846
:1045080019460548FFF706F9FFF720FF00BF80BDF1
:1045180000600240740500206401002080B500AFEF
:104528000948FFF767FA0346002B0AD00648FFF749
:104538002FFA0346002B04D00348FFF73BFAFFF796
:1045480059FF00BF80BD00BF00480040DFF834D0ED
:10455800002103E00C4B5B58435004310B480C4BD3
:1045680042189A42F6D30B4A02E0002342F8043B71
:10457800094B9A42F9D3FFF755F900F011F8FEF705
:1045880047FE704700000220A846000800000020EF
:1045980028010020280100204C060020FEE700002A
:1045A80070B50D4E0D4CA41BA4100025A54209D1D1
:1045B8000B4E0C4C00F02CF8A41BA4100025A542AF
:1045C80005D170BD56F8253098470135EEE756F805
:1045D800253098470135F2E7A0460008A0460008B4
:1045E800A0460008A446000810B5431E0A4491429C
:1045F80000D110BD11F8014B03F8014FF7E7024451
:104608000346934200D1704703F8011BF9E7000005
:10461800F8B500BFF8BC08BC9E467047F8B500BFA7
:08462800F8BC08BC9E46704777
:10463000680000006F0000006900000074000000C6
:104640007700000076000000750000006C65645F74
:10465000626C696E6B0000006C65645F73746174FA
:10466000650000006C69745F74696D65000000008E
:104670006E616D6500000000000000000000000099
:1046800001020304060708090000000001020304F8
:08469000102840587088A0B802
:0846980060BBFF7F0100000080
:0446A000AD01000860
:0446A4008901000880
:1046A8001000000001080000304600080600010064
:1046B800590100203446000886000100050000204A
:1046C80038460008880002005A0100203C460008CD
:1046D800800001008D250008404600088000010088
:1046E800112700080100C80053544D333220444DAF
:1046F8004120554152540000000000000000000015
:1047080000000000000000000000000000000000A1
:104718000000000000000000000000000000000091
:104728000000000000000000000000000000000081
:104738000000000000000000000000000000000071
:104748000000000000000000000000000000000061
:104758000000000000000000000000000000000051
:104768000000000000000000000000000000000041
:104778000000000000000000000000000000000031
:1047880000000000000000000000000019430008BD
:10479800000000004C46000806000100440000200C
:1047A80058460008060001005C0100206446000825
:1047B80008000200460000207046000884000F0030
:0847C800480000200024F40069
:040000050800455555
:00000001FF
